:020000020000FC
:040000000C94260036
:040010000C94F90053
:100040000C94BB000FEF0DBF18E01EBF0FEF0DBFEC
:1000500018E01EBFF2E0E8EE049100E207B90FE7F6
:100060000AB90FE104B90FE100936C0002E00093BC
:10007000680005E005BD01E006BD01E000936E00EB
:1000800000E00093C1000E94B600789455276627CF
:1000900033274427EE24FF24222724FD02C018C062
:1000A000FCCF25FD11C00FE00E21002E0FE00F2127
:1000B000102E00EF0E210295202E00EF0F21029549
:1000C000C02E0E947B00E9CF0000E7CF0000E5CF03
:1000D00025FDFCCF0FE00523002E0FE00623102E98
:1000E00000EF05230295202E00EF06230295C02E77
:1000F0000E947B00D2CF289AF2E0E8EEE00D88273C
:1001000084918BB90E94F50028980E94F5000E9406
:10011000F500299AF2E0E8EEE10D882784918BB989
:100120000E94F50029980E94F5000E94F5002A9A85
:100130000295F2E0E8EEE20D882784918BB90E94E7
:10014000F5002A980E94F5000E94F5002B9A02956E
:10015000F2E0E8EEEC0D882784918BB90E94F5005F
:100160002B980E94F5000E94F500089505E005BD5A
:1001700001E006BD08950F930FB70F9301E006BD90
:100180003395313051F4332701C007C044275395CC
:100190000FE005230A3029F000C00F910FBF0F9127
:1001A000189500EF502363950FE00623063009F001
:1001B000F4CF00EF60230FE052955395052352953D
:1001C000043051F00A3009F0E8CF0FE05023629577
:1001D000639506236295E1CF00EF06230295023076
:1001E00009F0DBCF50E060E0D8CF0AEF0A95F1F7D5
:1001F00008950F930FB70F9327FF02C005C070C07B
:1002000000E8202B16B16CC00FE720231E3129F027
:100210001D3179F01B3101F163C02D9A2295239590
:100220000FE002232295053009F05AC00FE0202389
:1002300057C0022F02950F70013029F0033019F0DA
:10024000043009F04DC02395022F0F70053009F0DE
:1002500047C000EF202344C0022F02950F700130E9
:1002600009F03EC01FE01223113039F0123079F04E
:100270001330B9F0143049F110CFE3941E2D1F70E4
:100280001A3009F02DC000EF0E21E02E29C0F394A2
:100290001F2D1F70163009F023C000EF0F21F02E24
:1002A0001FC0E294E3941E2DE2941F70143019F0E5
:1002B0001A3039F015C010EF1F21129512300DC001
:1002C0000FC00FE00E21E02E0BC0F294F3941F2D0F
:1002D000F2941F70133009F003C0FF24EE2400C015
:1002E0000F910FBF0F9118953F065B4F666D7D070D
:0802F0007F6F777C395E7971A4
:00000001FF
