:020000020000FC
:040000000C94260036
:100040000C948C000FEF0DBF18E01EBF0FEF0DBF1B
:1000500018E01EBFF1E0E6E7049100E007B90FE108
:1000600008B90FE70AB90FE104B90FE100936C007A
:1000700002E00093680005E005BD02EB06BD01E06B
:1000800000936E0000E00093C1000E948700789406
:10009000552766277727992722273327289AF1E0C3
:1000A000E6E7E50F882784918BB90E94B70028986E
:1000B0000E94B7000E94B700299AF1E0E6E7E60F38
:1000C000882784918BB90E94B70029980E94B700B5
:1000D0000E94B7002A9AF1E0E6E7E70F88278491AB
:1000E0008BB90E94B7002A980E94B7000E94B700FF
:1000F0002B9AF1E0E6E7E90F882784918BB90E94FB
:10010000B7002B980E94B7000E94B700C7CF05E048
:1001100005BD02EB06BD08950F930FB70F9302EBD9
:1001200006BD2395223B51F4222733953C3309F039
:1001300005C0332753955A3029F000C00F910FBFE7
:100140000F91189550E06395663009F0F7CF60E0A5
:100150007395753031F07A3009F0F0CF70E09395F7
:10016000EDCF923009F0EACF70E090E0E7CF0AEFF0
:100170000A95F1F708953F065B4F666D7D077F6F27
:06018000777C395E797105
:00000001FF
