:020000020000FC
:040000000C94260036
:040010000C94B1019A
:100040000C9417010FEF0DBF18E01EBF0FEF0DBF8F
:1000500018E01EBFF7E0E6E6049100E207B90FE7FB
:100060000AB90FE104B90FE100936C0002E00093BC
:10007000680005E005BD02EB06BD01E000936E00DF
:1000800000E00093C1000E94120178945527662772
:1000900033274427EE24FF242227AA24BB24CC2480
:1000A000DD2491E071E0D7FC0C945D0024FD0C94FC
:1000B00080000C94BE000C945300052F1C2D011BD6
:1000C000003014F40C945300062F1D2D011B00303A
:1000D00014F40C9453002C9AE6CF2C9A0FE00C21C8
:1000E000002E0FE00D21102E00EF0C210295202E86
:1000F00000EF0D210295302E0E94D7000C94530082
:1001000025FD0C9496002C9A0FE00E21002E0FE096
:100110000F21102E00EF0E210295202E00EF0F214F
:100120000295302E0E94D7000C94530003B1006159
:1001300005B90FE00B21002E00EF0B210295102EC8
:100140000FE00A21202E00EF07230295C02E0E9407
:10015000D7000C9453002C980FE00923002E00EFD9
:1001600009230295102E0FE00723202E00EF07230E
:100170000295C02E0E94D7000C94530025FD0C94CC
:10018000AB0026FD0C946D002C980FE00523002E8B
:100190000FE00623102E00EF05230295202E00EF1E
:1001A00006230295302E0E94D7000C945300289A03
:1001B000F7E0E6E6E00D882784918BB90E94AD0157
:1001C00028980E94AD010E94AD01299AF7E0E6E669
:1001D000E10D882784918BB90E94AD0129980E9476
:1001E000AD010E94AD012A9A0295F7E0E6E6E20D24
:1001F000882784918BB90E94AD012A980E94AD0195
:100200000E94AD012B9A0295F7E0E6E6E30D882700
:1002100084918BB90E94AD012B980E94AD010E9480
:10022000AD01089505E005BD02EB06BD08950F93ED
:100230000FB70F9302EB06BD3395323BA9F433277A
:1002400043954C3311F00C943401442753950FE03F
:1002500005230A3069F00C943401062F1D2D011B73
:10026000003009F001C02C9A0F910FBF0F91189523
:1002700000EF502363950FE00623063011F00C9435
:10028000340100EF60230FE05295539505235295FA
:10029000043061F00A3011F00C9434010FE0502367
:1002A00062956395062362950C94340100EF062352
:1002B0000295023011F00C94340150E060E0939507
:1002C000092F093249F0013381F0023329F10F700F
:1002D0000A30D9F10C943401072F023011F00C943C
:1002E0003401739591E00C943401072F043081F0B0
:1002F000063071F0093021F0013151F00C943401D5
:10030000072F029503950295702F91E00C9434010C
:10031000739591E00C943401072F013071F0033094
:1003200061F0053051F0093041F0083031F0003112
:1003300021F0023131F00C943401739591E00C946A
:10034000340171E091E00C943401092F007F029593
:1003500003950295902F0C9434010AEF0A95F1F75A
:1003600008950F930FB70F9327FF0C94BB010C94C4
:10037000C0010C94AF0300E8202B16B10C94AF031E
:100380000FE720231E3161F01D3139F11B31E9F1F6
:100390001731C9F11F3011F00C94AF030C94AC036A
:1003A000229523950FE002232295013051F003306E
:1003B00061F0043021F0053061F00C94AF030C942F
:1003C0003602EE24FF240C94AF03AA24BB240C9421
:1003D000AF030FE020230C94AF03022F02950F70A0
:1003E000013031F0033021F0043011F00C94AF03F0
:1003F0002395022F0F70043011F00C94AF0300EF1F
:1004000020230C94AF030C940203022F02950F706B
:10041000013031F00330B1F0043041F10C94AF03FE
:100420001FE012231030C1F1113031F0123031F0E1
:10043000133031F00C94AF030C945B020C946A02FD
:100440000C9484021FE01223103041F0113041F06F
:10045000123041F0133041F00C94AF030C94A00221
:100460000C94AC020C94E3020C94F6021FE01223ED
:10047000103051F0113051F0123051F0133051F072
:100480000C94AF030C94AF030C946E030C947A039A
:100490000C9486030C949F03E3941E2D1F701A3056
:1004A00029F05E2D6F2D44270C94AF0300EF0E2131
:1004B000E02E0C94AF03F3941F2D1F70163029F01B
:1004C0005E2D6F2D44270C94AF0300EF0F21F02E0B
:1004D0000C94AF03E294E3941E2DE2941F70143049
:1004E00039F01A3061F05E2D6F2D44270C94AF0364
:1004F00010EF1F2112951230B9F00C94AF030FE0EA
:100500000E21E02E0C94AF0300EF0E21F294F39431
:100510001F2DF2941F70123059F0133029F05E2D08
:100520006F2D44270C94AF03FF24EE240C94AF03EB
:1005300003300CF414C11E2D1F701063E12E0FC187
:10054000B3940B2D0F700A3011F00C94AF030B2DE8
:10055000007FB02E0C94AF03B294B3940B2DB294E1
:100560000F70023011F1033021F00430D1F00C94FF
:10057000AF031A2D143081F0163071F0193061F08C
:10058000113151F00B2D023314F40C94AF030B2DE9
:10059000007FB02E0C94AF030B2D007FB02E0C9477
:1005A000AF030B2D0F70B02EDAC00A2D023011F000
:1005B0000C94AF031B2D1F70193009F0D0C00B2D08
:1005C000007FB02ECCC0A3941A2D1F701A3059F0A2
:1005D000133011F00C94AF030A2D007F029500FF39
:1005E000BEC00C94F302107F0C94AF03A4FE0C94D5
:1005F000FE020A2D0F70A02E0C94AF03A294A394B8
:10060000A294ADC0022F02950F70013011F00C942E
:10061000AF031FE01223113051F01230C9F0133034
:1006200041F1143011F00C94AF030C9459031E2DBA
:100630001F701A951F3F31F0EA945E2D6F2D4427ED
:100640000C94AF0300EF0E210960E02E0C94AF0371
:100650001F2D1F701A951F3F31F0FA945E2D6F2DDC
:1006600044270C94AF0300EF0F210560F02E0C948B
:10067000AF03E2941E2DE2941F701A951F3F41F0C4
:10068000E294EA94E2945E2D6F2D44270C94AF031C
:100690001F2D107F1295123031F00FE00E210069EE
:1006A000E02E0C94AF030FE00E210063E02E0C94BB
:1006B000AF03F2941F2DF2941F701A951F3F41F063
:1006C000F294FA94F2945E2D6F2D44270C94AF03AC
:1006D0000F2D0F700062F02E0C94AF03C3941C2DED
:1006E0001F701A3011F00C94AF0300EF0C21C02ED4
:1006F0000C94AF03D3941D2D1F70163011F00C9481
:10070000AF0300EF0D21F02E0C94AF03C294C394FD
:100710001C2DC2941F70143031F01A3059F05C2D2A
:100720006F2D0C94AF0310EF1D211295123081F044
:100730000C94AF030FE00C21C02E0C94AF03D294A5
:10074000D3941D2DD2941F70133011F00C94AF036D
:10075000CC24DD240C94AF032C980C94AF030F91A0
:100760000FBF0F9118953F065B4F666D7D077F6F3A
:06077000777C395E79710F
:00000001FF
