:020000020000FC
:040000000C94260036
:040010000C94BD018E
:100040000C9422010FEF0DBF18E01EBF0FEF0DBF84
:1000500018E01EBFF7E0EEE8049100E207B90FE7F1
:100060000AB90FE104B90FE100936C0002E00093BC
:10007000680005E005BD02EB06BD01E000936E00DF
:1000800000E00093C1000E941D017894552755247B
:10009000662733274427EE24FF242227AA24BB24E3
:1000A000CC24DD2491E071E0D7FC0C945E0024FDAB
:1000B0000C9481000C94C6000C945400052F1C2D48
:1000C000011B003014F40C945400062F1D2D011B4D
:1000D000003014F40C9454002C9AE6CF2C9A0FE0C4
:1000E0000C21002E0FE00D21102E00EF0C210295A7
:1000F000202E00EF0D210295302E0E94E2000C947C
:10010000540025FD0C9497002C9A0FE00E21002E30
:100110000FE00F21102E00EF0E210295202E00EF90
:100120000F210295302E0E94E2000C94540003B17E
:10013000006105B90FE00B21002E00EF0B210295A5
:10014000102E0FE00A21202E00EF07230295302EFB
:100150000E94E2000C9454002C980FE00923002E1A
:1001600000EF09230295102E0FE00723202E00EF49
:1001700007230295302E0E94E2000C94540055246F
:100180002C992C982C9B2C9A0C94C60025FD0C9431
:10019000AC0026FD0C946E00052D023381F32C98E3
:1001A0000FE00523002E0FE00623102E00EF05239D
:1001B0000295202E00EF06230295302E0E94E200C9
:1001C0000C945400289AF7E0EEE8E00D882784911B
:1001D0008BB90E94B90128980E94B9010E94B90107
:1001E000299AF7E0EEE8E10D882784918BB90E9407
:1001F000B90129980E94B9010E94B9012A9A029571
:10020000F7E0EEE8E20D882784918BB90E94B901EE
:100210002A980E94B9010E94B9012B9A0295F7E031
:10022000EEE8E30D882784918BB90E94B9012B98E1
:100230000E94B9010E94B901089505E005BD02EBD5
:1002400006BD08950F930FB70F9302EB06BD3395CC
:100250005394323BA9F4332743954C3311F00C945B
:100260004001442753950FE005230A3069F00C94B0
:100270004001062F1D2D011B003009F001C02C9AF2
:100280000F910FBF0F91189500EF502363950FE06A
:100290000623063011F00C94400100EF60230FE0BC
:1002A0005295539505235295043061F00A3011F0B0
:1002B0000C9440010FE050236295639506236295EC
:1002C0000C94400100EF06230295023011F00C94CB
:1002D000400150E060E09395092F093249F0013365
:1002E00081F0023329F10F700A30D9F10C944001EA
:1002F000072F023011F00C944001739591E00C949B
:100300004001072F043081F0063071F0093021F0F0
:10031000013151F00C944001072F0295039502958D
:10032000702F91E00C944001739591E00C94400182
:10033000072F013071F0033061F0053051F00930C2
:1003400041F0083031F0003121F0023131F00C94ED
:100350004001739591E00C94400171E091E00C94A0
:100360004001092F007F029503950295902F0C9470
:1003700040010AEF0A95F1F708950F930FB70F9315
:1003800027FF0C94C7010C94CC010C94C30300E824
:10039000202B16B10C94C3030FE720231E3161F00C
:1003A0001D3139F11B31E9F11731C9F11F3011F05D
:1003B0000C94C3030C94C003229523950FE00223F1
:1003C0002295013051F0033061F0043021F0053006
:1003D00061F00C94C3030C944202EE24FF240C94AD
:1003E000C303AA24BB240C94C3030FE020230C9462
:1003F000C303022F02950F70013031F0033021F05A
:10040000043011F00C94C3032395022F0F700430B5
:1004100011F00C94C30300EF20230C94C3030C943D
:100420001603022F02950F70013031F00330B1F046
:10043000043041F10C94C3031FE012231030C1F1CA
:10044000113031F0123031F0133031F00C94C3031D
:100450000C9467020C9476020C9490021FE0122315
:10046000103041F0113041F0123041F0133041F0C2
:100470000C94C3030C94AC020C94BA020C94F302D7
:100480000C9408031FE01223103051F0113051F08A
:10049000123051F0133051F00C94C3030C94C30389
:1004A0000C9482030C948E030C949A030C94B30363
:1004B000E3941E2D1F701A3029F05E2D6F2D4427F6
:1004C0000C94C30300EF0E21E02E0C94C303F394AD
:1004D0001F2D1F70163029F05E2D6F2D44270C94B0
:1004E000C30300EF0F21F02E0C94C303E294E394B6
:1004F0001E2DE2941F70143039F01A3061F05E2D19
:100500006F2D44270C94C30310EF1F211295123056
:10051000B9F00C94C3030FE00E21E02E0C94C3033A
:1005200000EF0E21F294F3941F2DF2941F701230FD
:1005300059F0133029F05E2D6F2D44270C94C3031E
:10054000FF24EE240C94C30303300CF41CC11E2DB5
:100550001F701063E12E17C1B3940B2D0F700A307A
:1005600021F09B2D7A2D0C94C3030B2D007FB02E10
:100570000C94C303B294B3940B2DB2940F70023059
:1005800021F1033031F00430E1F09B2D7A2D0C94F1
:10059000C3031A2D143081F0163071F0193061F058
:1005A000113151F00B2D023314F40C94C3030B2DB5
:1005B000007FB02E0C94C3030B2D007FB02E0C9443
:1005C000C3030B2D0F70B02EDEC00A2D023011F0C8
:1005D0000C94C3031B2D1F70193009F0D4C00B2DD0
:1005E000007FB02ED0C0A3941A2D1F701A3069F06E
:1005F000133021F09B2D7A2D0C94C3030A2D007F1C
:10060000029500FFC0C00C940503107F0C94C30337
:10061000A4FE0C9412030A2D0F70A02E9B2D7A2D90
:100620000C94C303A294A394A294ADC0022F02958C
:100630000F70013011F00C94C3031FE0122311302E
:1006400051F01230C9F0133041F1143011F00C9414
:10065000C3030C946D031E2D1F701A951F3F31F0BC
:10066000EA945E2D6F2D44270C94C30300EF0E21F6
:100670000960E02E0C94C3031F2D1F701A951F3FB5
:1006800031F0FA945E2D6F2D44270C94C30300EFD4
:100690000F210560F02E0C94C303E2941E2DE2940A
:1006A0001F701A951F3F41F0E294EA94E2945E2D88
:1006B0006F2D44270C94C3031F2D107F1295123009
:1006C00031F00FE00E210069E02E0C94C3030FE01F
:1006D0000E210063E02E0C94C303F2941F2DF294BC
:1006E0001F701A951F3F41F0F294FA94F2945E2D18
:1006F0006F2D44270C94C3030F2D0F700062F02E52
:100700000C94C303C3941C2D1F701A3011F00C9469
:10071000C30300EF0C21C02E0C94C303D3941D2DF2
:100720001F70163011F00C94C30300EF0D21F02E52
:100730000C94C303C294C3941C2DC2941F70143034
:1007400031F01A3059F05C2D6F2D0C94C30310EF6B
:100750001D211295123081F00C94C3030FE00C217F
:10076000C02E0C94C303D294D3941D2DD2941F7029
:10077000133011F00C94C303CC24DD240C94C30378
:100780002C980C94C3030F910FBF0F9118953F063F
:0E0790005B4F666D7D077F6F777C395E7971F8
:00000001FF
