:020000020000FC
:040000000C94260036
:040010000C94D2007A
:100040000C9494000FEF0DBF18E01EBF0FEF0DBF13
:1000500018E01EBFF1E0E0EC04910FE107B90FE1F9
:1000600008B90FE70AB90FE104B90FE100936C007A
:1000700002E00093680005E005BD01E006BD01E077
:1000800000936E0000E00093C1000E948F007894FE
:100090005527662733274427289A0FE00523F1E0E8
:1000A000E0ECE00F882784918BB90E94CE0028985D
:1000B0000E94CE000E94CE00299A0FE00623F1E0B4
:1000C000E0ECE00F882784918BB90E94CE0029983C
:1000D0000E94CE000E94CE002A9A00EF05230295CE
:1000E000F1E0E0ECE00F882784918BB90E94CE000C
:1000F0002A980E94CE000E94CE002B9A00EF062381
:100100000295F1E0E0ECE00F882784918BB90E9422
:10011000CE002B980E94CE000E94CE00BDCF05E0FD
:1001200005BD01E006BD08950F930FB70F9301E0E1
:1001300006BD3395313051F4332701C007C0442741
:1001400053950FE005230A3029F000C00F910FBF2F
:100150000F91189500EF502363950FE006230630AA
:1001600009F0F4CF00EF60230FE05295539505237B
:100170005295043051F00A3009F0E8CF0FE05023D7
:100180006295639506236295E1CF00EF0623029501
:10019000023009F0DBCF50E060E0D8CF0AEF0A95DB
:1001A000F1F708950F930FB70F930FE118B1109562
:1001B000102302C0222700C00F910FBF0F91189586
:1001C0003F065B4F666D7D077F6F777C395E797187
:00000001FF
