:020000020000FC
:040000000C94260036
:100040000C948E000FEF0DBF18E01EBF0FEF0DBF19
:1000500018E01EBFF1E0E0E7049100E007B90FE10E
:1000600008B90FE70AB90FE104B90FE100936C007A
:1000700002E00093680005E00093250002EB009386
:10008000260001E000936E0000E00093C1000E9492
:1000900089007894552766277727992722273327C1
:1000A000289AF1E0E0E7E50F882784918BB90E9458
:1000B000B40028980E94B4000E94B400299AF1E08C
:1000C000E0E7E60F882784918BB90E94B400299855
:1000D0000E94B4000E94B4002A9AF1E0E0E7E70F22
:1000E000882784918BB90E94B4002A980E94B4009A
:1000F0000E94B4002B9AF1E0E0E7E90F8827849191
:100100008BB90E94B4002B980E94B4000E94B400E6
:10011000C7CF05E005BD02EB06BD08950F930FB7ED
:100120000F9302EB06BD2395223B29F4222753951A
:100130005A3029F000C00F910FBF0F91189550E071
:100140006395663009F0F7CF60E07395753031F054
:100150007A3009F0F0CF70E09395EDCF923009F04E
:10016000EACF70E090E0E7CF0AEF0A95F1F7089543
:100170003F065B4F666D7D077F6F777C395E7971D7
:00000001FF
