:020000020000FC
:040000000C94260036
:040010000C944D01FE
:100040000C94CC000FEF0DBF18E01EBF0FEF0DBFDB
:1000500018E01EBFF3E0EEE9049100E207B90FE7F4
:100060000AB90FE104B90FE100936C0002E00093BC
:10007000680005E005BD01E006BD01E000936E00EB
:1000800000E00093C1000E94C700789455276627BE
:1000900033274427EE24FF24222791E071E024FD3A
:1000A00002C027C0FCCF25FD11C00FE00E21002E9D
:1000B0000FE00F21102E00EF0E210295202E00EFF1
:1000C0000F210295C02E0E948C00E9CF0000E7CFDF
:1000D0000FE00923002E00EF09230295102E0FE0F8
:1000E0000723202E00EF07230295C02E0E948C00CC
:1000F000D6CF25FDEDCF0FE00523002E0FE0062320
:10010000102E00EF05230295202E00EF0623029506
:10011000C02E0E948C00C3CF289AF3E0EEE9E00DD8
:10012000882784918BB90E94490128980E9449012F
:100130000E944901299AF3E0EEE9E10D88278491B4
:100140008BB90E94490129980E9449010E944901E6
:100150002A9A0295F3E0EEE9E20D882784918BB9A3
:100160000E9449012A980E9449010E9449012B9A44
:100170000295F3E0EEE9EC0D882784918BB90E949B
:1001800049012B980E9449010E944901089505E008
:1001900005BD01E006BD08950F930FB70F9301E071
:1001A00006BD3395313051F4332701C007C04427D1
:1001B00053950FE005230A3029F000C00F910FBFBF
:1001C0000F91189500EF502363950FE0062306303A
:1001D00009F0F4CF00EF60230FE05295539505230B
:1001E0005295043051F00A3009F0E8CF0FE0502367
:1001F0006295639506236295E1CF00EF0623029591
:10020000023009F0DBCF50E060E09395092F09320E
:1002100041F0013369F00233F9F00F700A3091F1C7
:10022000CDCF072F023009F0C9CF739591E0C6CF2B
:10023000072F043071F0063061F0093019F00131F8
:1002400041F0BCCF072F029503950295702F91E0E6
:10025000B5CF739591E0B2CF072F013069F005302B
:1002600059F0053049F0093039F0083029F00031F3
:1002700019F0023121F0A2CF739591E09FCF71E088
:1002800091E09CCF092F007F029503950295902F56
:1002900095CF0AEF0A95F1F708950F930FB70F93D3
:1002A00027FF02C005C077C000E8202B16B173C03D
:1002B0000FE720231E3129F01D31A1F01B3129F158
:1002C0006AC02D9A229523950FE0022322950130D2
:1002D00019F0053021F05FC0EE24FF246FCF0FE04E
:1002E000202359C0022F02950F70013029F00330EE
:1002F00019F0043009F04FC02395022F0F7005301C
:1003000009F049C000EF202346C0022F02950F706C
:10031000013009F040C01FE01223113039F01230D3
:1003200089F01330C9F0143059F1B9CE5E2D6F2D1C
:10033000E3941E2D1F701A3009F02DC000EF0E211E
:10034000E02E29C0F3941F2D1F70163009F023C032
:1003500000EF0F21F02E1FC0E294E3941E2DE294D3
:100360001F70143019F01A3039F015C010EF1F212A
:10037000129512300DC00FC00FE00E21E02E0BC001
:10038000F294F3941F2DF2941F70133009F003C000
:10039000FF24EE2400C00F910FBF0F9118953F0668
:0E03A0005B4F666D7D077F6F777C395E7971EC
:00000001FF
