:020000020000FC
:040000000C94260036
:100040000C948E000FEF0DBF18E01EBF0FEF0DBF19
:1000500018E01EBFF1E0E8E7049100E007B90FE106
:1000600008B90FE70AB90FE104B90FE100936C007A
:1000700002E00093680005E00093250002EB009386
:10008000260001E000936E0000E00093C1000E9492
:1000900089007894552766277727992722273327C1
:1000A000289AF1E0E8E7E50F882784918BB90E9450
:1000B000B80028980E94B8000E94B800299AF1E080
:1000C000E8E7E60F882784918BB90E94B800299849
:1000D0000E94B8000E94B8002A9AF1E0E8E7E70F12
:1000E000882784918BB90E94B8002A980E94B80092
:1000F0000E94B8002B9AF1E0E8E7E90F8827849185
:100100008BB90E94B8002B980E94B8000E94B800DA
:10011000C7CF05E005BD01E006BD08950F930FB7F9
:100120000F9302EB06BD2395223B49F4222733951A
:100130003C3309F004C053955A3029F000C00F91A8
:100140000FBF0F91189550E06395663009F0F7CF17
:1001500060E07395753031F07A3009F0F0CF70E0DF
:100160009395EDCF923009F0EACF70E090E0E7CFC1
:100170000AEF0A95F1F708953F065B4F666D7D071C
:080180007F6F777C395E797115
:00000001FF
