:020000020000FC
:040000000C94260036
:100040000C948E000FEF0DBF18E01EBF0FEF0DBF19
:1000500018E01EBFF1E0EAE7049100E007B90FE104
:1000600008B90FE70AB90FE104B90FE100936C007A
:1000700002E00093680005E00093250002EB009386
:10008000260001E000936E0000E00093C1000E9492
:1000900089007894552766277727992722273327C1
:1000A000289AF1E0EAE7E50F882784918BB90E944E
:1000B000B90028980E94B9000E94B900299AF1E07D
:1000C000EAE7E60F882784918BB90E94B900299846
:1000D0000E94B9000E94B9002A9AF1E0EAE7E70F0E
:1000E000882784918BB90E94B9002A980E94B90090
:1000F0000E94B9002B9AF1E0EAE7E90F8827849182
:100100008BB90E94B9002B980E94B9000E94B900D7
:10011000C7CF05E005BD02EB06BD08950F930FB7ED
:100120000F9302EB06BD2395223B51F42227339512
:100130003C3309F005C0332753955A3029F000C0ED
:100140000F910FBF0F91189550E06395663009F03D
:10015000F7CF60E07395753031F07A3009F0F0CF69
:1001600070E09395EDCF923009F0EACF70E090E027
:10017000E7CF0AEF0A95F1F708953F065B4F666DEA
:0A0180007D077F6F777C395E79718F
:00000001FF
