:020000020000FC
:040000000C94260036
:040010000C941B0130
:100040000C94DD000FEF0DBF18E01EBF0FEF0DBFCA
:1000500018E01EBFF3E0E0E3049100E207B90FE708
:100060000AB90FE104B90FE100936C0002E00093BC
:10007000680005E005BD01E006BD01E000936E00EB
:1000800000E00093C1000E94D800789455276627AD
:1000900033274427EE24FF2400E70223029500FDC6
:1000A0000E949500289A0FE00523F3E0E0E3E00FBB
:1000B000882784918BB90E94170128980E94170104
:1000C0000E941701299A0FE00623F3E0E0E3E00F16
:1000D000882784918BB90E94170129980E941701E3
:1000E0000E9417012A9A00EF05230295F3E0E0E34E
:1000F000E00F882784918BB90E9417012A980E94EB
:1001000017010E9417012B9A00EF06230295F3E0D6
:10011000E0E3E00F882784918BB90E9417012B98A8
:100120000E9417010E941701B7CF289A0FE00E21F5
:10013000F3E0E0E3E00F882784918BB90E94170178
:1001400028980E9417010E941701299A00EF0E219A
:10015000F3E0E0E30295E00F882784918BB90E94D9
:10016000170129980E9417010E9417012A9A0FE08F
:100170000F21F3E0E0E3E00F882784918BB90E9420
:1001800017012A980E9417010E9417012B9A00EF6D
:100190000F210295F3E0E0E3E00F882784918BB90B
:1001A0000E9417012B980E9417010E9417011895B1
:1001B00005E005BD01E006BD08950F930FB70F934D
:1001C00001E006BD3395313051F4332701C007C03B
:1001D000442753950FE005230A3029F000C00F9102
:1001E0000FBF0F91189500EF502363950FE0062382
:1001F000063009F0F4CF00EF60230FE052955395DD
:1002000005235295043051F00A3009F0E8CF0FE091
:1002100050236295639506236295E1CF00EF062394
:100220000295023009F0DBCF50E060E0D8CF0AEF52
:100230000A95F1F708950F930FB70F9327FF02C0A8
:1002400005C072C000E8202B16B16EC00FE7202356
:10025000113029F0123071F01430F9F065C0229598
:1002600023950FE002232295053009F05DC00FE0D1
:1002700020235AC0022F02950F70013029F003305D
:1002800019F0043009F050C02395022F0F7005308B
:1002900009F04AC000EF202347C0022F02950F70DB
:1002A000013009F041C0FF24EE241FE01223113079
:1002B00039F0123089F01330D9F0143059F1ECCE06
:1002C00001E0D02AE3941E2D1F701A3009F02CC0D3
:1002D00000EF0E21E02E28C0E294E3941E2DE2945C
:1002E0001F70163009F020C00FE00E21E02E1CC058
:1002F000F3941F2D1F70143019F01A3039F014C008
:1003000010EF1F21129512300DC00EC000EF0F210B
:10031000F02E0AC0F294F3941F2DF2941F70133044
:1003200019F302C0FF2400C00F910FBF0F91189561
:100330003F065B4F666D7D077F6F777C395E797115
:00000001FF
