:020000020000FC
:040000000C94260036
:040010000C943E010D
:100040000C94BD000FEF0DBF18E01EBF0FEF0DBFEA
:1000500018E01EBFF3E0E2E7049100E207B90FE702
:100060000AB90FE104B90FE100936C0002E00093BC
:10007000680005E005BD01E006BD01E000936E00EB
:1000800000E00093C1000E94B800789455276627CD
:1000900033274427EE24FF24222791E071E024FD3A
:1000A00002C018C0FCCF25FD11C00FE00E21002EAC
:1000B0000FE00F21102E00EF0E210295202E00EFF1
:1000C0000F210295C02E0E947D00E9CF0000E7CFEE
:1000D0000000E5CF25FDFCCF0FE00923002E00EF47
:1000E00009230295102E0FE00723202E00EF07238F
:1000F0000295C02E0E947D00D2CF289AF3E0E2E75D
:10010000E00D882784918BB90E943A0128980E94BB
:100110003A010E943A01299AF3E0E2E7E10D8827CB
:1001200084918BB90E943A0129980E943A010E9459
:100130003A012A9A0295F3E0E2E7E20D88278491DA
:100140008BB90E943A012A980E943A010E943A0112
:100150002B9A0295F3E0E2E7EC0D882784918BB9A6
:100160000E943A012B980E943A010E943A01089598
:1001700005E005BD01E006BD08950F930FB70F938D
:1001800001E006BD3395313051F4332701C007C07B
:10019000442753950FE005230A3029F000C00F9142
:1001A0000FBF0F91189500EF502363950FE00623C2
:1001B000063009F0F4CF00EF60230FE0529553951D
:1001C00005235295043051F00A3009F0E8CF0FE0D2
:1001D00050236295639506236295E1CF00EF0623D5
:1001E0000295023009F0DBCF50E060E09395092FD3
:1001F000093241F0013369F00233F9F00F700A302F
:1002000091F1CDCF072F023009F0C9CF739591E05E
:10021000C6CF072F043071F0063061F0093019F0B5
:10022000013141F0BCCF072F029503950295702F45
:1002300091E0B5CF739591E0B2CF072F013069F00F
:10024000053059F0053049F0093039F0083029F00F
:10025000003119F0023121F0A2CF739591E09FCFC8
:1002600071E091E09CCF092F007F029503950295E4
:10027000902F95CF0AEF0A95F1F708950F930FB7D6
:100280000F9327FF02C005C070C000E8202B16B1F5
:100290006CC00FE720231E3129F01D3179F01B318E
:1002A00001F163C02D9A229523950FE00223229538
:1002B000053009F05AC00FE0202357C0022F0295E5
:1002C0000F70013029F0033019F0043009F04DC0EF
:1002D0002395022F0F70053009F047C000EF20234F
:1002E00044C0022F02950F70013009F03EC01FE09C
:1002F0001223113039F0123079F01330B9F0143084
:1003000049F1CDCEE3941E2D1F701A3009F02DC097
:1003100000EF0E21E02E29C0F3941F2D1F70163020
:1003200009F023C000EF0F21F02E1FC0E294E394E8
:100330001E2DE2941F70143019F01A3039F015C0D8
:1003400010EF1F21129512300DC00FC00FE00E21CB
:10035000E02E0BC0F294F3941F2DF2941F70133013
:1003600009F003C0FF24EE2400C00F910FBF0F91CE
:1003700018953F065B4F666D7D077F6F777C395E12
:02038000797191
:00000001FF
